{
  "contractName": "StructStorage",
  "abi": [
    {
      "constant": true,
      "inputs": [],
      "name": "c",
      "outputs": [
        {
          "internalType": "uint256",
          "name": "",
          "type": "uint256"
        }
      ],
      "payable": false,
      "stateMutability": "view",
      "type": "function"
    },
    {
      "constant": true,
      "inputs": [],
      "name": "farmerad",
      "outputs": [
        {
          "internalType": "address",
          "name": "",
          "type": "address"
        }
      ],
      "payable": false,
      "stateMutability": "view",
      "type": "function"
    },
    {
      "constant": true,
      "inputs": [
        {
          "internalType": "uint256",
          "name": "",
          "type": "uint256"
        }
      ],
      "name": "fm",
      "outputs": [
        {
          "internalType": "bytes",
          "name": "fid",
          "type": "bytes"
        },
        {
          "internalType": "bytes32",
          "name": "fname",
          "type": "bytes32"
        },
        {
          "internalType": "bytes32",
          "name": "loc",
          "type": "bytes32"
        },
        {
          "internalType": "bytes32",
          "name": "crop",
          "type": "bytes32"
        },
        {
          "internalType": "uint256",
          "name": "contact",
          "type": "uint256"
        },
        {
          "internalType": "uint256",
          "name": "quantity",
          "type": "uint256"
        },
        {
          "internalType": "uint256",
          "name": "exprice",
          "type": "uint256"
        }
      ],
      "payable": false,
      "stateMutability": "view",
      "type": "function"
    },
    {
      "constant": true,
      "inputs": [
        {
          "internalType": "uint256",
          "name": "",
          "type": "uint256"
        }
      ],
      "name": "l",
      "outputs": [
        {
          "internalType": "bytes",
          "name": "lotno",
          "type": "bytes"
        },
        {
          "internalType": "bytes",
          "name": "grade",
          "type": "bytes"
        },
        {
          "internalType": "uint256",
          "name": "mrp",
          "type": "uint256"
        },
        {
          "internalType": "bytes32",
          "name": "testdate",
          "type": "bytes32"
        },
        {
          "internalType": "bytes32",
          "name": "expdate",
          "type": "bytes32"
        }
      ],
      "payable": false,
      "stateMutability": "view",
      "type": "function"
    },
    {
      "constant": true,
      "inputs": [],
      "name": "s",
      "outputs": [
        {
          "internalType": "uint256",
          "name": "",
          "type": "uint256"
        }
      ],
      "payable": false,
      "stateMutability": "view",
      "type": "function"
    },
    {
      "constant": true,
      "inputs": [],
      "name": "supCounter",
      "outputs": [
        {
          "internalType": "uint256",
          "name": "",
          "type": "uint256"
        }
      ],
      "payable": false,
      "stateMutability": "view",
      "type": "function"
    },
    {
      "constant": true,
      "inputs": [],
      "name": "t",
      "outputs": [
        {
          "internalType": "uint256",
          "name": "",
          "type": "uint256"
        }
      ],
      "payable": false,
      "stateMutability": "view",
      "type": "function"
    },
    {
      "constant": true,
      "inputs": [],
      "name": "tester",
      "outputs": [
        {
          "internalType": "address",
          "name": "",
          "type": "address"
        }
      ],
      "payable": false,
      "stateMutability": "view",
      "type": "function"
    },
    {
      "constant": false,
      "inputs": [
        {
          "internalType": "address",
          "name": "addr",
          "type": "address"
        }
      ],
      "name": "fundaddr",
      "outputs": [],
      "payable": false,
      "stateMutability": "nonpayable",
      "type": "function"
    },
    {
      "constant": false,
      "inputs": [
        {
          "internalType": "address",
          "name": "receiver",
          "type": "address"
        },
        {
          "internalType": "uint256",
          "name": "amount",
          "type": "uint256"
        },
        {
          "internalType": "address",
          "name": "sender",
          "type": "address"
        }
      ],
      "name": "sendCoin",
      "outputs": [
        {
          "internalType": "bool",
          "name": "sufficient",
          "type": "bool"
        }
      ],
      "payable": false,
      "stateMutability": "nonpayable",
      "type": "function"
    },
    {
      "constant": true,
      "inputs": [
        {
          "internalType": "address",
          "name": "addr",
          "type": "address"
        }
      ],
      "name": "getBalance",
      "outputs": [
        {
          "internalType": "uint256",
          "name": "",
          "type": "uint256"
        }
      ],
      "payable": false,
      "stateMutability": "view",
      "type": "function"
    },
    {
      "constant": false,
      "inputs": [
        {
          "internalType": "bytes",
          "name": "id",
          "type": "bytes"
        },
        {
          "internalType": "bytes32",
          "name": "name",
          "type": "bytes32"
        },
        {
          "internalType": "bytes32",
          "name": "loc",
          "type": "bytes32"
        },
        {
          "internalType": "bytes32",
          "name": "cr",
          "type": "bytes32"
        },
        {
          "internalType": "uint256",
          "name": "con",
          "type": "uint256"
        },
        {
          "internalType": "uint256",
          "name": "q",
          "type": "uint256"
        },
        {
          "internalType": "uint256",
          "name": "pr",
          "type": "uint256"
        }
      ],
      "name": "produce",
      "outputs": [],
      "payable": false,
      "stateMutability": "nonpayable",
      "type": "function"
    },
    {
      "constant": true,
      "inputs": [
        {
          "internalType": "bytes",
          "name": "j",
          "type": "bytes"
        }
      ],
      "name": "getproduce",
      "outputs": [
        {
          "internalType": "bytes",
          "name": "",
          "type": "bytes"
        },
        {
          "internalType": "bytes32",
          "name": "",
          "type": "bytes32"
        },
        {
          "internalType": "bytes32",
          "name": "",
          "type": "bytes32"
        },
        {
          "internalType": "bytes32",
          "name": "",
          "type": "bytes32"
        },
        {
          "internalType": "uint256",
          "name": "",
          "type": "uint256"
        },
        {
          "internalType": "uint256",
          "name": "",
          "type": "uint256"
        },
        {
          "internalType": "uint256",
          "name": "",
          "type": "uint256"
        }
      ],
      "payable": false,
      "stateMutability": "view",
      "type": "function"
    },
    {
      "constant": false,
      "inputs": [
        {
          "internalType": "bytes",
          "name": "ll",
          "type": "bytes"
        },
        {
          "internalType": "bytes",
          "name": "g",
          "type": "bytes"
        },
        {
          "internalType": "uint256",
          "name": "p",
          "type": "uint256"
        },
        {
          "internalType": "bytes32",
          "name": "tt",
          "type": "bytes32"
        },
        {
          "internalType": "bytes32",
          "name": "e",
          "type": "bytes32"
        }
      ],
      "name": "quality",
      "outputs": [],
      "payable": false,
      "stateMutability": "nonpayable",
      "type": "function"
    },
    {
      "constant": true,
      "inputs": [
        {
          "internalType": "bytes",
          "name": "k",
          "type": "bytes"
        }
      ],
      "name": "getquality",
      "outputs": [
        {
          "internalType": "bytes",
          "name": "",
          "type": "bytes"
        },
        {
          "internalType": "bytes",
          "name": "",
          "type": "bytes"
        },
        {
          "internalType": "uint256",
          "name": "",
          "type": "uint256"
        },
        {
          "internalType": "bytes32",
          "name": "",
          "type": "bytes32"
        },
        {
          "internalType": "bytes32",
          "name": "",
          "type": "bytes32"
        }
      ],
      "payable": false,
      "stateMutability": "view",
      "type": "function"
    }
  ],
  "bytecode": "0x6080604052600160005560018055600160035534801561001e57600080fd5b50611aa58061002e6000396000f3fe608060405234801561001057600080fd5b50600436106100f55760003560e01c806386b714e211610097578063c3da42b811610066578063c3da42b814610997578063f8b2cb4f146109b5578063fb5ade3114610a0d578063ffdc174314610a51576100f5565b806386b714e2146108b757806392d0d153146108d5578063b81e3a50146108f3578063bce32a0914610979576100f5565b80635487e06e116100d35780635487e06e1461049957806354bb1361146105905780635ef53ded146106b85780638308abd41461086d576100f5565b806304eb580c146100fa57806307467a021461026a5780632c6d8fa71461033b575b600080fd5b610268600480360360a081101561011057600080fd5b810190808035906020019064010000000081111561012d57600080fd5b82018360208201111561013f57600080fd5b8035906020019184600183028401116401000000008311171561016157600080fd5b91908080601f016020809104026020016040519081016040528093929190818152602001838380828437600081840152601f19601f820116905080830192505050505050509192919290803590602001906401000000008111156101c457600080fd5b8201836020820111156101d657600080fd5b803590602001918460018302840111640100000000831117156101f857600080fd5b91908080601f016020809104026020016040519081016040528093929190818152602001838380828437600081840152601f19601f820116905080830192505050505050509192919290803590602001909291908035906020019092919080359060200190929190505050610a9b565b005b6102966004803603602081101561028057600080fd5b8101908080359060200190929190505050610c34565b6040518080602001888152602001878152602001868152602001858152602001848152602001838152602001828103825289818151815260200191508051906020019080838360005b838110156102fa5780820151818401526020810190506102df565b50505050905090810190601f1680156103275780820380516001836020036101000a031916815260200191505b509850505050505050505060405180910390f35b6103f46004803603602081101561035157600080fd5b810190808035906020019064010000000081111561036e57600080fd5b82018360208201111561038057600080fd5b803590602001918460018302840111640100000000831117156103a257600080fd5b91908080601f016020809104026020016040519081016040528093929190818152602001838380828437600081840152601f19601f820116905080830192505050505050509192919290505050610d1b565b6040518080602001888152602001878152602001868152602001858152602001848152602001838152602001828103825289818151815260200191508051906020019080838360005b8381101561045857808201518184015260208101905061043d565b50505050905090810190601f1680156104855780820380516001836020036101000a031916815260200191505b509850505050505050505060405180910390f35b61058e600480360360e08110156104af57600080fd5b81019080803590602001906401000000008111156104cc57600080fd5b8201836020820111156104de57600080fd5b8035906020019184600183028401116401000000008311171561050057600080fd5b91908080601f016020809104026020016040519081016040528093929190818152602001838380828437600081840152601f19601f8201169050808301925050505050505091929192908035906020019092919080359060200190929190803590602001909291908035906020019092919080359060200190929190803590602001909291905050506110d5565b005b6105bc600480360360208110156105a657600080fd5b810190808035906020019092919050505061127d565b604051808060200180602001868152602001858152602001848152602001838103835288818151815260200191508051906020019080838360005b838110156106125780820151818401526020810190506105f7565b50505050905090810190601f16801561063f5780820380516001836020036101000a031916815260200191505b50838103825287818151815260200191508051906020019080838360005b8381101561067857808201518184015260208101905061065d565b50505050905090810190601f1680156106a55780820380516001836020036101000a031916815260200191505b5097505050505050505060405180910390f35b610771600480360360208110156106ce57600080fd5b81019080803590602001906401000000008111156106eb57600080fd5b8201836020820111156106fd57600080fd5b8035906020019184600183028401116401000000008311171561071f57600080fd5b91908080601f016020809104026020016040519081016040528093929190818152602001838380828437600081840152601f19601f8201169050808301925050505050505091929192905050506113f0565b604051808060200180602001868152602001858152602001848152602001838103835288818151815260200191508051906020019080838360005b838110156107c75780820151818401526020810190506107ac565b50505050905090810190601f1680156107f45780820380516001836020036101000a031916815260200191505b50838103825287818151815260200191508051906020019080838360005b8381101561082d578082015181840152602081019050610812565b50505050905090810190601f16801561085a5780820380516001836020036101000a031916815260200191505b5097505050505050505060405180910390f35b610875611762565b604051808273ffffffffffffffffffffffffffffffffffffffff1673ffffffffffffffffffffffffffffffffffffffff16815260200191505060405180910390f35b6108bf611788565b6040518082815260200191505060405180910390f35b6108dd61178e565b6040518082815260200191505060405180910390f35b61095f6004803603606081101561090957600080fd5b81019080803573ffffffffffffffffffffffffffffffffffffffff16906020019092919080359060200190929190803573ffffffffffffffffffffffffffffffffffffffff169060200190929190505050611794565b604051808215151515815260200191505060405180910390f35b61098161188c565b6040518082815260200191505060405180910390f35b61099f611892565b6040518082815260200191505060405180910390f35b6109f7600480360360208110156109cb57600080fd5b81019080803573ffffffffffffffffffffffffffffffffffffffff169060200190929190505050611898565b6040518082815260200191505060405180910390f35b610a4f60048036036020811015610a2357600080fd5b81019080803573ffffffffffffffffffffffffffffffffffffffff1690602001909291905050506118e1565b005b610a5961192a565b604051808273ffffffffffffffffffffffffffffffffffffffff1673ffffffffffffffffffffffffffffffffffffffff16815260200191505060405180910390f35b610aa3611950565b6040518060a0016040528087815260200186815260200185815260200184815260200183815250905080600a876040518082805190602001908083835b60208310610b035780518252602082019150602081019050602083039250610ae0565b6001836020036101000a03801982511681845116808217855250505050505090500191505090815260200160405180910390206000820151816000019080519060200190610b52929190611985565b506020820151816001019080519060200190610b6f929190611985565b50604082015181600201556060820151816003015560808201518160040155905050600b81908060018154018082558091505090600182039060005260206000209060050201600090919290919091506000820151816000019080519060200190610bdb929190611985565b506020820151816001019080519060200190610bf8929190611985565b50604082015181600201556060820151816003015560808201518160040155505050600360008154809291906001019190505550505050505050565b60098181548110610c4157fe5b9060005260206000209060070201600091509050806000018054600181600116156101000203166002900480601f016020809104026020016040519081016040528092919081815260200182805460018160011615610100020316600290048015610ced5780601f10610cc257610100808354040283529160200191610ced565b820191906000526020600020905b815481529060010190602001808311610cd057829003601f168201915b5050505050908060010154908060020154908060030154908060040154908060050154908060060154905087565b60606000806000806000806008886040518082805190602001908083835b60208310610d5c5780518252602082019150602081019050602083039250610d39565b6001836020036101000a03801982511681845116808217855250505050505090500191505090815260200160405180910390206000016008896040518082805190602001908083835b60208310610dc85780518252602082019150602081019050602083039250610da5565b6001836020036101000a03801982511681845116808217855250505050505090500191505090815260200160405180910390206001015460088a6040518082805190602001908083835b60208310610e355780518252602082019150602081019050602083039250610e12565b6001836020036101000a03801982511681845116808217855250505050505090500191505090815260200160405180910390206002015460088b6040518082805190602001908083835b60208310610ea25780518252602082019150602081019050602083039250610e7f565b6001836020036101000a03801982511681845116808217855250505050505090500191505090815260200160405180910390206003015460088c6040518082805190602001908083835b60208310610f0f5780518252602082019150602081019050602083039250610eec565b6001836020036101000a03801982511681845116808217855250505050505090500191505090815260200160405180910390206004015460088d6040518082805190602001908083835b60208310610f7c5780518252602082019150602081019050602083039250610f59565b6001836020036101000a03801982511681845116808217855250505050505090500191505090815260200160405180910390206005015460088e6040518082805190602001908083835b60208310610fe95780518252602082019150602081019050602083039250610fc6565b6001836020036101000a038019825116818451168082178552505050505050905001915050908152602001604051809103902060060154868054600181600116156101000203166002900480601f0160208091040260200160405190810160405280929190818152602001828054600181600116156101000203166002900480156110b55780601f1061108a576101008083540402835291602001916110b5565b820191906000526020600020905b81548152906001019060200180831161109857829003601f168201915b505050505096509650965096509650965096509650919395979092949650565b6110dd611a05565b6040518060e00160405280898152602001888152602001878152602001868152602001858152602001848152602001838152509050806008896040518082805190602001908083835b602083106111495780518252602082019150602081019050602083039250611126565b6001836020036101000a03801982511681845116808217855250505050505090500191505090815260200160405180910390206000820151816000019080519060200190611198929190611985565b506020820151816001015560408201518160020155606082015181600301556080820151816004015560a0820151816005015560c08201518160060155905050600981908060018154018082558091505090600182039060005260206000209060070201600090919290919091506000820151816000019080519060200190611222929190611985565b506020820151816001015560408201518160020155606082015181600301556080820151816004015560a0820151816005015560c0820151816006015550505060008081548092919060010191905055505050505050505050565b600b818154811061128a57fe5b9060005260206000209060050201600091509050806000018054600181600116156101000203166002900480601f0160208091040260200160405190810160405280929190818152602001828054600181600116156101000203166002900480156113365780601f1061130b57610100808354040283529160200191611336565b820191906000526020600020905b81548152906001019060200180831161131957829003601f168201915b505050505090806001018054600181600116156101000203166002900480601f0160208091040260200160405190810160405280929190818152602001828054600181600116156101000203166002900480156113d45780601f106113a9576101008083540402835291602001916113d4565b820191906000526020600020905b8154815290600101906020018083116113b757829003601f168201915b5050505050908060020154908060030154908060040154905085565b6060806000806000600a866040518082805190602001908083835b6020831061142e578051825260208201915060208101905060208303925061140b565b6001836020036101000a0380198251168184511680821785525050505050509050019150509081526020016040518091039020600001600a876040518082805190602001908083835b6020831061149a5780518252602082019150602081019050602083039250611477565b6001836020036101000a0380198251168184511680821785525050505050509050019150509081526020016040518091039020600101600a886040518082805190602001908083835b6020831061150657805182526020820191506020810190506020830392506114e3565b6001836020036101000a038019825116818451168082178552505050505050905001915050908152602001604051809103902060020154600a896040518082805190602001908083835b602083106115735780518252602082019150602081019050602083039250611550565b6001836020036101000a038019825116818451168082178552505050505050905001915050908152602001604051809103902060030154600a8a6040518082805190602001908083835b602083106115e057805182526020820191506020810190506020830392506115bd565b6001836020036101000a038019825116818451168082178552505050505050905001915050908152602001604051809103902060040154848054600181600116156101000203166002900480601f0160208091040260200160405190810160405280929190818152602001828054600181600116156101000203166002900480156116ac5780601f10611681576101008083540402835291602001916116ac565b820191906000526020600020905b81548152906001019060200180831161168f57829003601f168201915b50505050509450838054600181600116156101000203166002900480601f0160208091040260200160405190810160405280929190818152602001828054600181600116156101000203166002900480156117485780601f1061171d57610100808354040283529160200191611748565b820191906000526020600020905b81548152906001019060200180831161172b57829003601f168201915b505050505093509450945094509450945091939590929450565b600560009054906101000a900473ffffffffffffffffffffffffffffffffffffffff1681565b60005481565b60035481565b600082600460008473ffffffffffffffffffffffffffffffffffffffff1673ffffffffffffffffffffffffffffffffffffffff1681526020019081526020016000205410156117e65760009050611885565b82600460008473ffffffffffffffffffffffffffffffffffffffff1673ffffffffffffffffffffffffffffffffffffffff1681526020019081526020016000206000828254039250508190555082600460008673ffffffffffffffffffffffffffffffffffffffff1673ffffffffffffffffffffffffffffffffffffffff16815260200190815260200160002060008282540192505081905550600190505b9392505050565b60015481565b60025481565b6000600460008373ffffffffffffffffffffffffffffffffffffffff1673ffffffffffffffffffffffffffffffffffffffff168152602001908152602001600020549050919050565b6107d0600460008373ffffffffffffffffffffffffffffffffffffffff1673ffffffffffffffffffffffffffffffffffffffff1681526020019081526020016000208190555050565b600660009054906101000a900473ffffffffffffffffffffffffffffffffffffffff1681565b6040518060a0016040528060608152602001606081526020016000815260200160008019168152602001600080191681525090565b828054600181600116156101000203166002900490600052602060002090601f016020900481019282601f106119c657805160ff19168380011785556119f4565b828001600101855582156119f4579182015b828111156119f35782518255916020019190600101906119d8565b5b509050611a019190611a4b565b5090565b6040518060e00160405280606081526020016000801916815260200160008019168152602001600080191681526020016000815260200160008152602001600081525090565b611a6d91905b80821115611a69576000816000905550600101611a51565b5090565b9056fea265627a7a723158200d9ee1cc882dcb128037f79a8a9621a537f41dc19342354a06fc50c35876f52164736f6c63430005100032",
  "source": "pragma solidity ^0.5.0;\r\n\r\ncontract StructStorage {\r\n\r\n    uint256 public s = 1; \r\n    uint256 public supCounter =1;\r\n    uint256 public c;\r\n    uint256 public t=1;\r\n    mapping (address => uint) balances;\r\n\r\n    function fundaddr(address addr) public{\r\n        balances[addr] = 2000;\r\n    }\r\n\r\n        function sendCoin(address receiver, uint amount, address sender) public returns(bool sufficient){\r\n        \r\n        if (balances[sender] < amount) \r\n        return false;\r\n        \r\n        balances[sender] -= amount;\r\n        balances[receiver] += amount;\r\n        \r\n                        \r\n        return true;\r\n        \r\n    }\r\n\r\n    function getBalance(address addr) view public returns(uint){\r\n        return balances[addr];\r\n    }\r\n\r\n\r\n\r\nstruct farmer {\r\n   \r\n    bytes fid;\r\n    bytes32 fname;\r\n    bytes32 loc;\r\n    bytes32 crop;\r\n    uint256 contact;\r\n    uint quantity;\r\n    uint exprice;\r\n}\r\n\r\nstruct lot {\r\n\r\n    bytes lotno;\r\n    bytes grade;\r\n    uint mrp;\r\n    bytes32 testdate;\r\n    bytes32 expdate;\r\n}\r\n\r\n\r\n\r\naddress public tester;\r\naddress public farmerad; \r\n\r\naddress owner;\r\n\r\nmapping (bytes => farmer) f1;\r\nfarmer[] public fm;\r\n\r\nmapping (bytes => lot) l1;\r\nlot[] public l;\r\n\r\n\r\n\r\nfunction produce(bytes memory id, bytes32 name, bytes32 loc, bytes32 cr, uint256 con, uint q, uint pr) public{\r\n               \r\n        StructStorage.farmer memory fnew = farmer(id,name,loc,cr,con,q,pr);\r\n        f1[id] = fnew;\r\n        fm.push(fnew);\r\n        s++;\r\n  \r\n}\r\n    \r\n function getproduce(bytes memory j) public view returns(bytes memory,bytes32,bytes32,bytes32,uint256,uint,uint) {\r\n        return (f1[j].fid,f1[j].fname,f1[j].loc,f1[j].crop,f1[j].contact,f1[j].quantity,f1[j].exprice);\r\n    }\r\n function quality(bytes memory ll, bytes memory g, uint256 p, bytes32 tt, bytes32 e) public{\r\n    \r\n        StructStorage.lot memory lnew=lot(ll,g,p,tt,e);\r\n        l1[ll]=lnew;\r\n        l.push(lnew);\r\n        t++;\r\n  \r\n }  \r\n function getquality(bytes memory k) public view returns(bytes memory,bytes memory,uint,bytes32,bytes32) {\r\n     return(l1[k].lotno,l1[k].grade,l1[k].mrp,l1[k].testdate,l1[k].expdate);\r\n     \r\n }\r\n}\r\n",
  "sourcePath": "C:\\Users\\wassi\\Documents\\Blockchain\\AgroChainbackup\\contracts\\StructStorage.sol",
  "compiler": {
    "name": "solc",
    "version": "0.5.16+commit.9c3226ce.Emscripten.clang"
  },
  "schemaVersion": "3.4.3",
  "updatedAt": "2021-12-12T19:11:32.807Z",
  "networkType": "ethereum",
  "devdoc": {
    "methods": {}
  },
  "userdoc": {
    "methods": {}
  }
}